S00E00004449485F48352E7372656365
S113000071C000008FC000008DC000008BC00000D4
S113001089C0000087C0000085C0000083C00000C4
S113002081C000007FC000007DC000007BC00000D4
S113003079C0000077C0000075C0000073C00000E4
S113004071C000006FC000006DC000006BC00000F4
S113005069C0000067C0000065C0000063C0000004
S113006061C000005FC000005DC000005BC0000014
S113007059C0000057C0000055C0000053C0000024
S113008051C000004FC000004DC000004BC0000034
S11300904DC4000047C0000045C0000043C000003C
S11300A041C000003FC000003DC000003BC0000054
S11300B039C0000037C0000035C0000033C0000064
S11300C031C000002FC000002DC000002BC0000074
S11300D029C0000027C0000025C0000023C0000084
S11300E021C0000011241FBECFEFD1E2DEBFCDBF7F
S11300F000E00CBF13E0A0E0B2E0E0E8F9E100E0CA
S11301000BBF02C007900D92A23EB107D9F724E0BD
S1130110A2EEB3E001C01D92A239B207E1F79DD06F
S11301200C94BE0C6DCFE7E0F1E0808181608083A8
S11301308081826080838081846080838081886004
S11301408083E8E0F1E08081806180838081806247
S11301508083808180648083808180688083089527
S1130160E8ECF0E0208122602083E9ECF0E02081DB
S113017028692083EAECF0E0208124602083EED516
S113018020E030E040E051E47BD69B01AC0160E02C
S113019074E284E79BE449D520E030E040E85FE383
S11301A0DFD4D1D6AAD56093CC007093CD00089546
S11301B08093CE00E8ECF0E0808185FFFDCF0895C8
S11301C0CF93DF93EC018881882329F02196F0DF17
S11301D089918111FCCFDF91CF9108950E948A0902
S11301E080E092E00E943C0960E08AE00E941F09DE
S11301F089E092E00E943C098EE092E00E943C0972
S113020061E08FE00C941F090895860F971F8232D6
S1130210910521F08C9719F403C0089581C40895C1
S11302202FEF83ED90E3215080409040E1F700C030
S11302300000D4DFC1E0D0E0CE01F2D6EC0126D735
S1130240BC01CE01E2DF2FE788E391E0215080403A
S11302509040E1F700C00000EFCF65DF60E072EC92
S113026081E090E07DDF7894DBDF2B98239A2FEFF9
S113027080EE90E0215080409040E1F700C0000003
S11302802B9A23980895CF92DF92EF92FF92C12C7C
S1130290D12C760114C08AE08A95F1F700C020E0E1
S11302A030E040E050E4C701B6015BD46B017C014F
S11302B020E030E040E752E4DFD588233CF41B998A
S11302C0EACF1B9BFECF1B9904C005C080E090E0E1
S11302D002C081E090E0FF90EF90DF90CF9008950E
S11302E0CF9302C01B9B02C01B99FCCFDC01805B37
S11302F09F4F61E070E025C01B9BFECF1B9B0EC08F
S113030020E030E0CAE0CA95F1F700C02E5F3F4F0D
S11303101B99F8CF2731310534F402C020E030E0D6
S113032011961C921E922D33310514F07183608353
S1130330329612964E175F07F9F6DA0148175907F5
S113034029F0AD01405F5F4FFD01D6CFCF910895F5
S1130350AB014150504F42955295507F5427407FF6
S11303605427840F951FFC017096AC0180E090E047
S113037021E030E0B291A2912A9FB0012B9F700D31
S11303803A9F700D1124860F971F220F331FE41715
S1130390F50781F708952F923F924F925F926F92E3
S11303A07F928F929F92AF92BF92CF92DF92EF9201
S11303B0FF920F931F93CF93DF93CDB7DEB72C97A4
S11303C00FB6F894DEBF0FBECDBF9E838D832DB7CD
S11303D03EB73C872B87FC0101900020E9F7319759
S11303E05F01A81AB90ABB24A501415051095887D5
S11303F04F838DB79EB78A199B090FB6F8949EBF99
S11304000FBE8DBFADB7BEB711964D018091E2030B
S11304109091E303A091E403B091E503803F984DEC
S1130420AF4FBF4F61F41092E2031092E3031092B6
S1130430E4031092E50382E080938A0499C0198250
S11304401A821B821C822F803884280C391C940148
S11304502F5F3F4F3A87298780918A04843011F4B3
S113046010928A04EAEEF3E001900020E9F7319754
S1130470CF018A5E93406C01E12CF12CC114D104AC
S1130480E104F10409F44FC08FE99FE00197F1F70B
S113049000C0000029813A814B815C812F5F3F4F6E
S11304A04F4F5F4F29833A834B835C83EAEEF3E03B
S11304B001900020E9F73197CF018A5E9340A0E0D4
S11304C0B0E0C816D906EA06FB0669F50AEE13E0A1
S11304D0412C512C32014F81588569857A85C4019C
S11304E026D7D8018D918D01F1018083A5016D81FD
S11304F07E81C4012DD7892B61F41092E2031092FE
S1130500E3031092E4031092E50381E080938A04EC
S11305102FC0FFEF4F1A5F0A6F0A7F0A4C145D0465
S11305206E047F04C1F68FE99FE00197F1F700C0E4
S1130530000029813A814B815C812F5F3F4F4F4FEF
S11305405F4F29833A834B835C838091E2039091CC
S1130550E303A091E403B091E503805F984DAF4FAE
S1130560BF4F281739074A075B0708F475CF5BCFDD
S11305704B855C850FB6F8945EBF0FBE4DBF2C96BD
S11305800FB6F894DEBF0FBECDBFDF91CF911F91A0
S11305900F91FF90EF90DF90CF90BF90AF909F901E
S11305A08F907F906F905F904F903F902F90089521
S11305B080EAEAEEF3E0DF011D928A95E9F71092F2
S11305C0E9031092E8031092E7031092E6030895FA
S11305D0CF93DF93EC0184E080938A04CE01DBDEC9
S11305E080918A048823D1F3DF91CF910895F0DFBD
S11305F081E090918A04923009F480E008950F9389
S11306001F93CF93DF938C01EB01D2DFC801D8DDB8
S113061084E892E0D5DDCE01EADFDF91CF911F912E
S11306200F9108950F931F93CF93DF93CDB7DEB748
S113063064970FB6F894DEBF0FBECDBF8E010F5F77
S11306401F4F94E1F80111929A95E9F71F928F9345
S113065083E292E09F938F931F930F93B4D61C8AE7
S11306606CE172E0C801CBDF0F900F900F900F90F8
S11306700F900F9064960FB6F894DEBF0FBECDBFF7
S1130680DF91CF911F910F9108950F931F93CF93F3
S1130690DF93CDB7DEB764970FB6F894DEBF0FBE15
S11306A0CDBF8E010F5F1F4F94E1F80111929A950F
S11306B0E9F71F928F9381E392E09F938F931F93A7
S11306C00F9381D61C8A6CE172E0C80198DF0F9009
S11306D00F900F900F900F900F9064960FB6F894B0
S11306E0DEBF0FBECDBFDF91CF911F910F91089553
S11306F0CF93C5E06CE172E08EE392E080DF81117C
S113070009C06CE172E083E492E079DF811102C0F8
S1130710C15081F7CF9108950F931F93CF93DF9327
S1130720CDB7DEB764970FB6F894DEBF0FBECDBF6A
S11307308E010F5F1F4F94E1F80111929A95E9F72A
S11307401F928F9384E592E09F938F931F930F934F
S11307503AD61C8A6CE172E0C80151DF0F900F9009
S11307600F900F900F900F9064960FB6F894DEBF21
S11307700FBECDBFDF91CF911F910F9108950F93BD
S11307801F93CF93DF93CDB7DEB7EC970FB6F894F2
S1130790DEBF0FBECDBF8E010F5F1F4F2CE3F801EC
S11307A011922A95E9F77F936F939F938F9381E634
S11307B092E09F938F931F930F9305D61CAE64E72B
S11307C072E0C8011CDF0FB6F894DEBF0FBECDBFC8
S11307D081111EC067E872E08AEE93E0C7D5892BC9
S11307E0C9F460E972E08AEE93E0C0D5892BA1F4E4
S11307F069E972E08AEE93E0B9D5892B79F462EA6B
S113080072E08AEE93E0B2D5892B51F485E009C0F9
S113081080E007C081E005C082E003C083E001C03E
S113082084E0EC960FB6F894DEBF0FBECDBFDF9127
S1130830CF911F910F9108956CE172E08BEA92E0E1
S1130840DEDE68EB72E08AEE93E090D5892BB9F492
S113085061EC72E08AEE93E089D5892B91F46AEC1D
S113086072E08AEE93E082D5892B69F463ED72E03D
S11308708AEE93E07BD5892B41F484E0089580E0EF
S1130880089581E0089582E0089583E00895EF9249
S1130890FF920F931F93CF93DF93CDB7DEB7649787
S11308A00FB6F894DEBF0FBECDBF8C01CE0101960A
S11308B07C0184E1F70111928A95E9F7F80101902E
S11308C00020E9F7CF01801B910B01969F938F9332
S11308D083E393E09F938F93FF92EF9274D51C8AE6
S11308E061E473E0C7018BDE69E473E0C80187DE6D
S11308F00F900F900F900F900F900F90811106C0E2
S113090080918A04823021F085E003C081E001C037
S113091082E064960FB6F894DEBF0FBECDBFDF91C0
S1130920CF911F910F91FF90EF9008951F920F9216
S11309300FB60F9211240BB60F922F938F939F93A0
S1130940EF93FF932FB7F894E091E803F091E90354
S11309508091CE00E651FC4F80838091E803909112
S1130960E90301969093E9038093E8038091E803F7
S11309709091E903803A910541F41092E9031092B1
S1130980E8031092E7031092E6032FBFFF91EF9163
S11309909F918F912F910F900BBE0F900FBE0F90D0
S11309A01F901895B7D485E593E066D461E080E0A4
S11309B046D48DE593E060D461E08FE040C40895AF
S11309C0EF92FF920F931F93CF93DF93CDB7DEB7D0
S11309D0C659D1090FB6F894DEBF0FBECDBFF82EAD
S11309E0E92E86DE8823E9F385E693E045D483E0A7
S11309F093DE80E04ADE80E015DE1EDF833029F4DA
S1130A006AE673E084E793E0BADE8E010F5F1F4F5E
S1130A1086E9F80111928A95E9F7EF92FF928BE942
S1130A2093E09F938F938CEA93E09F938F931F930C
S1130A300F93C9D41F930F93B3D4C80128DFFFEBDE
S1130A4026EC8DE2F15020408040E1F700C0000028
S1130A508DEC93E011D40FB6F894DEBF0FBECDBF7A
S1130A60CA56DF4F0FB6F894DEBF0FBECDBFDF917D
S1130A70CF911F910F91FF90EF900895CF93DF9343
S1130A80CDB7DEB7CA55D1090FB6F894DEBF0FBE95
S1130A90CDBFEBDBF8DB892B19F0CE010B9620DC04
S1130AA039D463E070E0CE010B9652DC9F938F93B0
S1130AB088ED93E09F938F938E010F5F1F4F1F93D9
S1130AC00F9381D4C801D8D361E080E0B8D363E048
S1130AD070E0CE010B963CDC9F938F938EED93E0F8
S1130AE09F938F93085F1F4F1F930F936CD4C8017C
S1130AF067DF0FB6F894DEBF0FBECDBF01E010E094
S1130B00C8018ED28C01C2D2800F911F0B97C1F7FE
S1130B10A4DBF6CF860F971F8C9709F4AFCF089507
S1130B202FE38DE093E0215080409040E1F700C036
S1130B30000038DF01E010E0C80172D28C01A6D2B7
S1130B40EC01BC01C801E6DFC00FD11F2B9709F4EB
S1130B5084DB89E698E10197F1F700C00000ECCF4F
S1130B605058BB27AA270ED04DC13ED130F043D1F7
S1130B7020F031F49F3F11F41EF433C10EF4E095DC
S1130B80E7FB29C1E92F4FD180F3BA176207730736
S1130B908407950718F071F49EF567C10EF4E0958B
S1130BA00B2EBA2FA02D0B01B90190010C01CA0123
S1130BB0A0011124FF27591B99F0593F50F4503ECE
S1130BC068F11A16F040A22F232F342F4427585FC0
S1130BD0F3CF469537952795A795F0405395C9F7D8
S1130BE07EF41F16BA0B620B730B840BBAF0915090
S1130BF0A1F0FF0FBB1F661F771F881FC2F70EC02F
S1130C00BA0F621F731F841F48F487957795679501
S1130C10B795F7959E3F08F0B3CF9395880F08F0EA
S1130C209927EE0F9795879508950CD0EBC0E3D0E4
S1130C3040F0DAD030F021F45F3F19F0CCC051110C
S1130C4015C1CFC0F0D098F39923C9F35523B1F35C
S1130C50951B550BBB27AA2762177307840738F027
S1130C609F5F5F4F220F331F441FAA1FA9F333D086
S1130C700E2E3AF0E0E830D091505040E695001C3A
S1130C80CAF729D0FE2F27D0660F771F881FBB1FF6
S1130C90261737074807AB07B0E809F0BB0B802DD0
S1130CA0BF01FF2793585F4F2AF09E3F510568F01C
S1130CB092C0DCC05F3FECF3983EDCF386957795F9
S1130CC06795B795F7959F5FC9F7880F911D96951E
S1130CD0879597F90895E1E0660F771F881FBB1F7A
S1130CE0621773078407BA0720F0621B730B840B27
S1130CF0BA0BEE1F88F7E095089504D06894B111FB
S1130D00B5C0089598D088F09F5790F0B92F9927CF
S1130D10B751A0F0D1F0660F771F881F991F1AF002
S1130D20BA95C9F712C0B13081F09FD0B1E00895EF
S1130D309CC0672F782F8827B85F39F0B93FCCF370
S1130D40869577956795B395D9F73EF490958095F8
S1130D50709561957F4F8F4F9F4F0895E89409C018
S1130D6097FB3EF490958095709561957F4F8F4FDA
S1130D709F4F9923A9F0F92F96E9BB279395F695F0
S1130D80879577956795B795F111F8CFFAF4BB0F6E
S1130D9011F460FF1BC06F5F7F4F8F4F9F4F16C0D2
S1130DA0882311F096E911C0772321F09EE8872F5C
S1130DB0762F05C0662371F096E8862F70E060E018
S1130DC02AF09A95660F771F881FDAF7880F969591
S1130DD0879597F9089597F99F6780E870E060E038
S1130DE008959FEF80EC089500240A9416161706C0
S1130DF018060906089500240A9412161306140608
S1130E0005060895092E0394000C11F4882352F06A
S1130E10BB0F40F4BF2B11F460FF04C06F5F7F4F22
S1130E208F4F9F4F089557FD9058440F551F59F009
S1130E305F3F71F04795880F97FB991F61F09F3FC3
S1130E4079F087950895121613061406551FF2CFEC
S1130E504695F1DF08C0161617061806991FF1CF3C
S1130E6086957105610508940895E894BB27662763
S1130E707727CB0197F9089586D008F48FEF08956A
S1130E800BD0C0CFB1DF28F0B6DF18F0952309F0FE
S1130E90A2CFA7CF1124EACFC6DFA0F3959FD1F349
S1130EA0950F50E0551F629FF001729FBB27F00D14
S1130EB0B11D639FAA27F00DB11DAA1F649F662769
S1130EC0B00DA11D661F829F2227B00DA11D621FB8
S1130ED0739FB00DA11D621F839FA00D611D221F72
S1130EE0749F3327A00D611D231F849F600D211D56
S1130EF0822F762F6A2F11249F5750408AF0E1F0F9
S1130F0088234AF0EE0FFF1FBB1F661F771F881F41
S1130F1091505040A9F79E3F510570F05CCFA6CF89
S1130F205F3FECF3983EDCF3869577956795B7952C
S1130F30F795E7959F5FC1F7FE2B880F911D969556
S1130F40879597F9089577DFE0F09E37D8F09639C2
S1130F50B8F49E3848F4672F782F8827985FF9CF24
S1130F6086957795679593959539D0F3B62FB1709B
S1130F706B0F711D811D20F4879577956795939567
S1130F8026C040C073CF990F0008550FAA0BE0E8A4
S1130F90FEEF16161706E807F907C0F01216130637
S1130FA0E407F50798F0621B730B840B950B39F477
S1130FB00A2661F0232B242B252B21F408950A26DD
S1130FC009F4A140A6958FEF811D811D0895882302
S1130FD071F4772321F09850872B762F07C066236E
S1130FE011F499270DC09051862B70E060E02AF02F
S1130FF09A95660F771F881FDAF7880F969587955D
S113100097F908959F3F31F0915020F48795779593
S11310106795B795880F911D9695879597F90895CB
S11310208230910541F11CF4019739F02EC08330D0
S11310309105B9F0049759F028C0E8E0F1E0808107
S11310408EEF80938B04808384E090E00895E8E041
S1131050F1E080818DEF80938B04808383E090E0C6
S11310600895E8E0F1E080818BEF80938B04808326
S113107082E090E00895E8E0F1E0808187EF8093DA
S11310808B04808381E090E0089508958FE39CE9C8
S11310900197F1F700C000008091060184FF0FC0A2
S11310A08091060185FF0EC08091060186FF0DC068
S11310B080910601882364F48AE590E008958AE02B
S11310C090E0089584E190E008958EE190E0089521
S11310D088E290E00895A59A0000A5980895CF931A
S11310E0C82F662311F0749A01C0749875986B9A8E
S11310F0E1E0F1E080818860808380818061808389
S1131100808180628083E2E0F1E080818F7D808352
S113111080818F7E80838081877F80837398CC23B6
S11311201CF4808180628083C6FF05C0E2E0F1E0A8
S1131130808180618083C5FF05C0E2E0F1E08081A9
S113114088608083C4FD739AC6DFE2E0F1E08081A9
S11311508F7D808380818F7E80838081877F808361
S11311607398C3FF03C0808180628083C2FF05C07F
S1131170E2E0F1E0808180618083C1FF05C0E2E0AC
S1131180F1E0808188608083C0FD739AA4DF739A44
S1131190E2E0F1E0808188608083808180618083E7
S11311A0808180628083CF910895882311F0749A9E
S11311B001C07498759A6B98E1E0F1E08081877FB3
S11311C0808380818F7E808380818F7D8083A59AB8
S11311D00000639B02C080E101C080E090910001A7
S11311E093FD80629091000194FD806490910001D0
S11311F095FD8068A5980000A59A00006399816018
S11312009091000193FD82609091000194FD8460AF
S11312109091000195FD8860A598089580E0C5DF50
S11312208823E4F300C000C080E0BFCF0895CF93CB
S1131230C82FF4DF60E08C2F52DFCF910895611145
S113124003C08058F4CF08958054F1CF089581E00D
S1131250EECF0895CF93C82FE1DFCA3041F4803434
S113126010F080E001C080E48058E1DF03C061E059
S11312708C2F35DFCF910895CF93DF93EC01219626
S1131280FC018081882321F0E5DF89918111FCCF65
S1131290DF91CF910895CF93C82F6C9A6D9A9D9A40
S11312A06B9AE1E0F1E080818860808380818061D5
S11312B080838081806280838FE99FE00197F1F7CA
S11312C000C00000E2E0F1E0808188608083739ACE
S11312D002DF81EE94E00197F1F700C00000FBDE2D
S11312E095E19A95F1F70000F6DE85E18A95F1F72C
S11312F000007398F0DE95E19A95F1F7000088E21A
S113130096DF88E094DFA3DF86E091DF8C2F8FDF08
S1131310CF9108958FE0BFDF9ACF0895FB01DC01E0
S113132002C001900D9241505040D8F708956817BB
S1131330790768F4FB01DC01E40FF51FA40FB51F66
S113134002C002900E9241505040D8F70895E6CF63
S1131350FB01DC014150504030F08D910190801927
S113136019F40020B9F7881B990B0895FB015191DA
S11313705523A9F0BF01DC014D9145174111E1F757
S113138059F4CD010190002049F04D9140154111CF
S1131390C9F3FB014111EFCF81E090E0019708957B
S11313A0CF93DF93CDB7DEB7AE014A5F5F4FFA014B
S11313B061917191AF0180918E0490918F0431D02D
S11313C0DF91CF9108950F931F93CF93DF93CDB700
S11313D0DEB72E970FB6F894DEBF0FBECDBF0E89D1
S11313E01F8986E08C831A8309838FEF9FE79E838E
S11313F08D83AE01465E5F4F688D798DCE01019677
S113140010D0EF81F885E00FF11F10822E960FB6F1
S1131410F894DEBF0FBECDBFDF91CF911F910F9126
S113142008952F923F924F925F926F927F928F9284
S11314309F92AF92BF92CF92DF92EF92FF920F935F
S11314401F93CF93DF93CDB7DEB72B970FB6F894E6
S1131450DEBF0FBECDBF6C017B018A01FC01178288
S11314601682838181FFBFC1CE0101963C01F60142
S11314709381F70193FD859193FF81917F018823E7
S113148009F4ADC1853239F493FD859193FF8191BF
S11314907F01853221F4B60190E0D6D1E8CF912CBA
S11314A0212C312CFFE1F315D8F08B3279F038F48C
S11314B0803279F08332A1F4232D20611DC08D3256
S11314C061F0803369F4232D216016C0832D82607E
S11314D0382EE32DE4603E2E2AC0F32DF8601DC0A3
S11314E037FC2DC020ED280F2A3040F08E32B9F49D
S11314F036FC75C1232D2064322E19C036FE06C079
S11315008AE0989E200D1124922E11C0EAE02E9EAE
S1131510200D1124222EF32DF0623F2E08C08C36AC
S113152021F4832D8068382E02C0883641F4F701F7
S113153093FD859193FF81917F018111B3CF982F02
S11315409F7D9554933028F40C5F1F4F9FE399833C
S11315500DC0833631F0833771F0833509F055C0FF
S113156020C0F801808189830E5F1F4F88248394F3
S1131570912C530112C02801F2E04F0E511CF801C6
S1131580A080B18036FE03C0692D70E002C06FEF09
S11315907FEFC5014ED14C018201F32DFF773F2E21
S11315A015C0280122E0420E511CF801A080B18030
S11315B036FE03C0692D70E002C06FEF7FEFC501F6
S11315C02DD14C01F32DF0683F2E820133FC19C05C
S11315D0822D90E088169906A0F4B60180E290E08E
S11315E033D12A94F5CFF50137FC859137FE8191EB
S11315F05F01B60190E028D121102A9421E0821ADB
S113160091088114910479F7E1C0843611F0893688
S113161039F5F80137FE07C06081718182819381B9
S11316200C5F1F4F08C060817181072E000C880B6E
S1131630990B0E5F1F4FF32DFF763F2E97FF09C0C6
S113164090958095709561957F4F8F4F9F4FF0686F
S11316503F2E2AE030E0A30133D1882E861844C0FF
S1131660853731F4232D2F7EB22E2AE030E025C0B9
S1131670932D997FB92E8F36C1F018F4883579F0FF
S1131680AEC0803719F0883721F0A9C0E92FE06196
S1131690BE2EB4FE0DC0FB2DF460BF2E09C034FE77
S11316A00AC0292F2660B22E06C028E030E005C00B
S11316B020E130E002C020E132E0F801B7FE07C0CB
S11316C060817181828193810C5F1F4F06C06081AC
S11316D0718180E090E00E5F1F4FA301F1D0882E4E
S11316E08618FB2DFF773F2E36FE0DC0232D2E7F4F
S11316F0A22E891458F434FE0BC032FC09C0832D89
S11317008E7EA82E05C0B82CA32C03C0B82C01C013
S1131710B92CA4FE0FC0FE01E80DF11D80818033B9
S113172021F49A2D997EA92E09C0A2FE06C0B39475
S1131730B39404C08A2D867809F0B394A3FC10C036
S1131740A0FE06C0B21480F4280C922C9B180DC085
S1131750B21458F4B60180E290E076D0B394F8CF96
S1131760B21418F42B1802C0982C212CA4FE0FC01C
S1131770B60180E390E068D0A2FE16C0A1FC03C0CD
S113178088E790E002C088E590E0B6010CC08A2D9D
S1131790867851F0A1FE02C08BE201C080E2A7FC72
S11317A08DE2B60190E050D0891430F4B60180E3A4
S11317B090E04AD09A94F8CF8A94F301E80DF11D91
S11317C08081B60190E040D08110F6CF222009F448
S11317D04ECEB60180E290E037D02A94F7CFF601DE
S11317E08681978102C08FEF9FEF2B960FB6F894F6
S11317F0DEBF0FBECDBFDF91CF911F910F91FF9040
S1131800EF90DF90CF90BF90AF909F908F907F909C
S11318106F905F904F903F902F900895FC0105903A
S1131820615070400110D8F7809590958E0F9F1FDE
S11318300895FC016150704001900110D8F7809523
S113184090958E0F9F1F08950F931F93CF93DF934F
S1131850FB01238121FD03C08FEF9FEF2CC022FFEA
S113186016C046815781248135814217530744F4B9
S1131870A081B1819D012F5F3F4F318320838C93E1
S1131880268137812F5F3F4F3783268314C08B0116
S1131890EC01FB010084F185E02D1995892BE1F61B
S11318A0D80116968D919C911797019617969C9343
S11318B08E931697CE01DF91CF911F910F910895CA
S11318C0FA01AA27283051F1203181F1E8946F936D
S11318D06E7F6E5F7F4F8F4F9F4FAF4FB1E03ED013
S11318E0B4E03CD0670F781F891F9A1FA11D680FB1
S11318F0791F8A1F911DA11D6A0F711D811D911DE4
S1131900A11D20D009F468943F912AE0269F112458
S11319103019305D3193DEF6CF010895462F4770BC
S1131920405D4193B3E00FD0C9F7F6CF462F4F7017
S1131930405D4A3318F0495D31FD4052419302D075
S1131940A9F7EACFB4E0A69597958795779567951B
S1131950BA95C9F700976105710508959B01AC011B
S11319600A2E06945795479537952795BA95C9F742
S1131970620F731F841F951FA01D0895F894FFCF55
S113198044697374616E6365003A20410A005465CA
S11319906D706572617475723A2042000D0A4F4B86
S11319A00D0A0041542B4349504D4F44453D256495
S11319B00041542B4349504D55583D256400415432
S11319C045300041540041542B434950434C4F533C
S11319D0453D310041542B43574D4F44453D25640B
S11319E00041542B43574A41503D222573222C2257
S11319F0257322000D0A5749464920434F4E4E4550
S1131A00435445440D0A002B43574A41503A310090
S1131A102B43574A41503A32002B43574A41503ADC
S1131A2033002B43574A41503A340041542B434925
S1131A3050535441545553005354415455533A321E
S1131A40005354415455533A33005354415455535D
S1131A503A34005354415455533A35004349504D98
S1131A6055583A300041542B4349504D55583F0086
S1131A7041542B43495053544152543D22544350F2
S1131A80222C222573222C25730041542B434950C8
S1131A9053544152543D222564222C225443502253
S1131AA02C222573222C257300434F4E4E4543545C
S1131AB00D0A0041542B43495053454E443D25647F
S1131AC0000D0A4F4B0D0A3E000D0A53454E4420AB
S1131AD04F4B0D0A004175746F3A204100557365F0
S1131AE0723A2042007465737400313233343536EF
S1131AF0373839004B656E6E657468202D20695047
S1131B00686F6E65003830006170692E7468696EA4
S1131B1067737065616B2E636F6D003139384149AD
S1131B203158564E5050454950454500474554207C
S1131B302F7570646174653F6170695F6B65793D91
S1131B402573266669656C64313D256400446174BF
S1131B50612073656E64740054656D703A20256469
S1051B6000007F
S9030000FC
